:020000041000EA
:1000000000B5324B212058609868022188439860DF
:10001000D860186158612E4B002199600221596106
:100020000121F02299502B49196001219960352056
:1000300000F044F80222904214D00621196600F024
:1000400034F8196E01211966002018661A6600F04E
:100050002CF8196E196E196E052000F02FF8012189
:100060000842F9D1002199601B49196000215960AB
:100070001A491B48016001219960EB211966A021F2
:10008000196600F012F800219960164914480160C1
:100090000121996001BC002800D000471248134993
:1000A000086003C880F30888084703B5996A0420EC
:1000B0000142FBD001200142F8D103BD02B5186610
:1000C0001866FFF7F2FF186E186E02BD00000240BE
:1000D000000000180000070000035F00212200005C
:1000E000F4000018222000A00001001008ED00E03C
:1000F00000000000000000000000000074B24E7A12
:1001000000200420F7010010C3010010C5010010F9
:10011000C1010010C1010010C1010010C101001097
:10012000C1010010C1010010C1010010C701001081
:10013000C1010010C1010010C9010010CB01001065
:10014000CD010010CD010010CD010010CD01001037
:10015000CD010010CD010010CD010010CD01001027
:10016000CD010010CD010010CD010010CD01001017
:10017000CD010010CD010010CD010010CD01001007
:10018000CD010010CD010010CD010010CD010010F7
:10019000CD010010CD010010CD010010CD010010E7
:1001A000CD010010CD010010CD010010CD010010D7
:1001B000CD010010CD010010CD010010CD010010C7
:1001C00000BE00BE00BE00BE00BE00BEEFF3058054
:1001D000103800BEF2EB8871403401106434011015
:1001E0003402001090A31AE700201F49086006C8D7
:1001F00081F3088810471D48006800282FD10DA4FE
:100200000ECC002902D000F012F8F9E71849194A7B
:10021000002000E001C19142FCD1174988471749ED
:1002200088471749884700BEFDE701C901C29A42C5
:10023000FBD3704764340110C0000020181C00205C
:10024000BC4F01100000042000000420BC4F01102E
:10025000001004200010042000000000704709482E
:1002600004F09CFE0047000008ED00E0000000D014
:10027000181C0020282F0020013D00102909001023
:10028000BD3C00105756000006005250ABB36053FF
:100290008416011006005250861C030294160110A9
:1002A000060052505422A29DA8160110050052507B
:1002B000DE65F468BC4F0110F8B5C04610B5064CB9
:1002C0002378002B07D1054B002B02D0044800E017
:1002D00000BF0123237010BD10210020000000008A
:1002E000F0020110044B10B5002B03D00349044861
:1002F00000E000BF10BDC046000000001421002037
:10030000F002011000B585B0012002F035FC074B6A
:100310001860074B029300230193064B0093064A93
:10032000002302F07DFD05B000BDC046042800207A
:10033000F0200020E50800101027000010B509206B
:1003400001F04EFCD024240680239B006362A3614D
:10035000082001F045FC80235B006362A36110BDAF
:10036000F8B5144C144920000EF03CFC60680221E2
:100370000840124FC0239B013B43196026680725A4
:100380007540CF262E4080256D0125432E608022AA
:1003900092013A43106060680840196002311960A8
:1003A000106003390A2001F0D9FB01210B2001F074
:1003B000D5FBF8BD0000044000366E010400044087
:1003C00010B501200EF048FC1F4B18601F4B0C2885
:1003D00034D81F4A1340C00203430C218B4308202A
:1003E00003431C4A13401C4A13401C4A134007385D
:1003F00003431B480340022293431A4A13608B4372
:10040000136010200343136014318B4313601649AB
:100410000B40902109030B4313600B4B1B681349DE
:1004200009689B01A020C0058446634419601049F7
:1004300059600621996012681A6110BD0D4B0E4A71
:10044000C3210E4803F03EFCDC2E002010801F006C
:10045000FF87FFFF3FF8FFFFFFFFBFFFFFFFDFFF4B
:10046000FFFF7FFFE02E0020FF7FE0FFD827002066
:1004700008000440F0020110F40301101003011001
:1004800010B50B490B4809F0F9FA0321022001F0DD
:1004900065FB0321032001F061FB00220121022002
:1004A00001F074FB00220121032001F06FFB10BD5D
:1004B000801A06009813002010B582B0074C002364
:1004C0002372074B00933C2320228021200001F05F
:1004D000D3F8200001F058F902B010BD74280020B4
:1004E000981300203E4B3F4A1A603F4AA021C9059D
:1004F0008623DB001068C850C046C046C046C046D0
:10050000C046C046C046C046C046C046C046C046BB
:10051000C046D0231B06802189005961C046C046D1
:10052000C046C046C046C046C046C046C046C0469B
:10053000C046C046C04699610139FF3999611268C9
:100540009301A021C9058C4663441B69DB01F7D4E4
:10055000234B264A1A60244B196862468623DB0027
:10056000D150C046C046C046C046C046C046C04640
:10057000C046C046C046C046C046C046C046C0464B
:10058000C046C046C046C046C046C046C046C0463B
:10059000C046C046C046D0231B06802292005A6146
:1005A000C046C046C046C046C046C046C046C0461B
:1005B000C046C046C046C046C0469A61C046C04616
:1005C000C046C046C046C046C046C046C046C046FB
:1005D000C046C046C046013AFF3A5A617047C0461D
:1005E000D8270020B00F0020DC2E00209C280020FF
:1005F000F0B5C64600B501249440E4B24E008E1911
:10060000F3B29846002119E00026B4462DE00026FA
:10061000B44635E00026B4463DE00026B44645E049
:100620000026B4464DE00026B44655E000221743AC
:10063000324A5755181880B20131C9B2052957D826
:100640000D002F4B1A68175C27407B1E9F412B4BD8
:100650005E5C37437FB25F5443469BB2404480B2F6
:10066000165C3442D0D00226B44666463743234E49
:100670007755181880B2165C3442C8D00426B446A8
:10068000664637431D4E7755181880B2165C3442C3
:10069000C0D00826B44666463743184E775518181A
:1006A00080B2165C3442B8D01026B4466646374352
:1006B000124E7755181880B2165C3442B0D02026FE
:1006C000B446664637430D4E7755181880B2165C0F
:1006D0003442A8D04026B44666463743074E775585
:1006E000181880B2125C1442A0D0802252429EE7B9
:1006F000FFF7F8FE80BCB846F0BDC0469C2800203D
:10070000B82C002070B51C4B1B681C896300E418D2
:10071000E4B200262AE0F5B2002221002800FFF70B
:1007200067FF012221002800FFF762FF022221005B
:100730002800FFF75DFF032221002800FFF758FF84
:10074000042221002800FFF753FF05222100280082
:10075000FFF74EFF062221002800FFF749FF07227E
:1007600021002800FFF744FF0136B6B2A3B2B3421E
:10077000D1D808F0E5FF70BD0828002010B5094B5E
:1007800000221A705A709A70DA701A715A71002425
:1007900003E0FFF7A7FE0134A4B2F023DB009C4284
:1007A000F7D310BD9C28002010B582B00EE000F0F9
:1007B00057FF254C0122254920000BF0F3FF2000B4
:1007C00000F01CFE224B186000280AD121490023AA
:1007D0008B7621480CF0C4FD1D4B18680028E6D12B
:1007E000E7E71E4B1868002801D006F09FFA1C4B63
:1007F0001868002801D006F099FA154B1A68138979
:10080000548963435C00E418200006F031FA134B6E
:100810001860200006F02CFA114B1860114C2023B0
:100820000093603308220021200000F0DBFF074B1B
:100830000093012308220021200001F097F82000F6
:1008400001F0A0F802B010BD901E00208A1D00200B
:1008500008280020701D0020181D0020942800206A
:10086000B82C00207428002070B5104B186800F0D8
:10087000AFFE002812D10E4C0C4D2168286800F004
:10088000D4FE2B681A8A0B4B1A8022680A4B19680F
:1008900021601A60094808F0C7FF70BD034C20684A
:1008A00000F0D6FE206800F093FEE4E70828002060
:1008B00094280020B60F0020B82C00200507001057
:1008C00010B5054B054A1A80FFF76EFFFFF756FF7C
:1008D000034B00221A8010BD162F00203075000037
:1008E000B60F002010B50D4B1B88002B0CD00A3B17
:1008F0000A4A13800A4B1B88002B0BD0084A138826
:10090000013B1380012010BD044B064A1A80FFF7FB
:10091000D7FFF7E7FFF7A8FFF0E7C046162F002044
:10092000B60F00203075000030B587B005AB04AAC3
:1009300003A9344801F0C0F8002803D131493248F6
:1009400003F05AFA059A0499039801F079F806F031
:10095000D9FBFFF795FDFFF7F1FCFFF701FDFFF76E
:100960002FFDFFF7A9FD294C294B009301230022FD
:100970001100200000F0FAFF200001F003F8FA2037
:10098000C00002F043FB234806F080FB002000F08B
:100990004FF80168383001220BF0D4FE041E1CD140
:1009A0001D491E480CF039FC041E21D1174C202390
:1009B0000093603300221100200000F013FF184B59
:1009C0000093012300221100200000F0CFFF20003F
:1009D00000F0D8FFFFF796FCFEE70DF0CFFF010017
:1009E000250022000F4806F081FB280007B030BD2B
:1009F0000DF0C4FF0100250022000B4806F076FB35
:100A0000F3E7C0468807020078030110742800202D
:100A10006003011068030110C4030110181D0020B9
:100A2000E4030110AC030110C8030110012070475A
:100A300010B50400FFF7FAFFA04205D3AE208000F6
:100A40006043024BC01810BD0020FCE7B80F002027
:100A50000120704710B50400FFF7E8FFA04205D35E
:100A6000200100198000024C201810BD0020FCE776
:100A70007012002010B506E0C2181179044C2468E9
:100A8000615C1171013302689A42F5D810BDC0460D
:100A9000C827002010B5421ED417072323409B18F7
:100AA000DB1001338B4217DCC91A421FD41707230E
:100AB00023409B18DB10013399420FDBC91AC31E78
:100AC000DA1703201040C01880100130814208DB83
:100AD000081A4000013000E0C80010BDC900081D20
:100AE000FBE788000230F8E700B583B06B460222CE
:100AF00001A90CF00AF86B4618795B791B02C01843
:100B000080B203B000BDF0B5DE4657464E464546BE
:100B1000E0B583B081460D00160098460C9B9B46BD
:100B200000239A4600241AE001AB012259464846A8
:100B300000680BF0EAFF3378013B33702A1B08236F
:100B4000DB1B934200DD13005A4610783841000445
:100B5000000CA0405246104382B29246E418AC42C8
:100B60001ADA43461B781B19DA17520F9918072017
:100B700001408F1A1842E1D13378002BD4D101AB58
:100B800001223100484600680BF0BFFF3378002B8C
:100B9000CAD18020400111E00120A840013800B2F4
:100BA000534603401800434619784D19EA17520F6F
:100BB000AD1807231D40AD1A43461D7003B0F0BCAD
:100BC000BB46B246A946A046F0BD0000F0B5C646F9
:100BD00000B5040088461D4BC35A07895F431C4B70
:100BE000C35AFF18002628E07B195800C01840445B
:100BF000032206F0B9F80135C723DB00E35AAB4204
:100C000018DD144BE158114BE25A921923895343D2
:100C10000F4AA25A9B185B19CB5C5900C918E269AC
:100C2000944661440431A269002ADDD0A27C9A4234
:100C3000DAD1E0E72389FF180136074BE35AB342C4
:100C400001DD0025D8E780BCB846F0BD36060000BF
:100C500034060000440600003A060000F0B5C6461F
:100C600000B50500C37C022B09D0032B04D0C82398
:100C7000DB00C158FFF7AAFF80BCB846F0BD174B98
:100C8000C35C5F00FF18C3699C4667440437144B7C
:100C9000C35A06895E43134BC35AF618002398467D
:100CA00015E0C823DB00E858321953009B18C01820
:100CB0000322390006F058F80134C723DB00EB5A51
:100CC000A342EEDC2B89F61801239C46E044064B38
:100CD000EB5A4345D0DD0024EFE7C0463C06000058
:100CE00036060000340600003A06000070B5050024
:100CF000431C01249C40FF2C01DC80246400630021
:100D00001B195B000C33180005F0B2FF002817D048
:100D100004600124AC40A31C436003000C338360D7
:100D200000230BE05A00D218520081688C466244BE
:100D30000121118003495180137101339C42F1DC80
:100D400070BDC046FF0F000070B5164B1868002834
:100D500001D005F0EBFFFF2005F08AFF114B186072
:100D600000241CE0200005F0A1FE0F4905F07FFEE5
:100D700005F0C4FEC022D2050C4B05F021F800227C
:100D80000B4B04F0CAFB00220A4B04F09FFB054BFF
:100D90001D682D1904F076FC28700134E4B2FF2C94
:100DA000E0D170BDC827002000007F436666064082
:100DB000000060400000E03F70B582B006006B4666
:100DC00001226946073130680BF09FFE30686B46A0
:100DD000DC790025826BC36B12196B410BF0BDFFF0
:100DE0006B46DB79002BEAD102B070BDF0B5DE4670
:100DF00057464E464546E0B58DB00400C523DB009E
:100E0000C358002B63D0006801220023856BC66B9A
:100E1000521973410BF0A1FF2068FFF765FE83466E
:100E20002068FFF761FE07902068FFF75DFE0890DD
:100E30002068FFF759FE09900AAF0BAB0122390079
:100E400020680BF062FE192104AB9C466144884681
:100E50000BAB012220680BF058FE1A2104AB9C4614
:100E6000614489460BAB012220680BF04EFE1B212A
:100E700004AB9C4661448A460BAB012220680BF010
:100E800044FE23689E6BC523DB00E55851460B7872
:100E9000049349460B78039341460B7802933B78C1
:100EA000019309990091089B079A59462000A84789
:100EB000F317320020680BF050FF2000FFF77CFF93
:100EC0000DB0F0BCBB46B246A946A046F0BD0068D6
:100ED0000D220023856BC66B521973410BF03DFF49
:100EE000EBE7F0B583B00400006801260027826BB1
:100EF000C36B92197B410BF030FF6B46DD1D012265
:100F0000290020680BF001FE2A78910803230B408A
:100F1000E37402231340636101231340A36120683B
:100F2000FFF7E2FD2082210012316B46012220688A
:100F30000BF0EBFD2068826BC36B92197B410BF0C9
:100F40000CFF03B0F0BD000070B50400074BC358A0
:100F5000002B07D00268956B9847EB172A00206892
:100F60000BF0FBFE2000FFF727FF70BD2C060000F2
:100F700070B584B00400006801220023856BC66B45
:100F8000521973410BF0E9FE6B46082202A9206852
:100F90000BF0BBFD6B46032201A920680BF0B5FDE9
:100FA00008221B4902A80EF0BBFF002814D0C6235C
:100FB000DB00E358002B26D02268956B01AA02A91A
:100FC00020009847EB172A0020680BF0C6FE20008F
:100FD000FFF7F2FE04B070BD206802220023856B8B
:100FE000C66B521973410BF0B8FE2068FFF77CFD09
:100FF000E081206801220023846BC56B12196B41CC
:101000000BF0ABFEE6E72000FFF7D6FEE2E7C046B6
:101010001404011030B583B004006B46DD1D0122BD
:10102000290000680BF071FD2978FE2913D007D83C
:1010300001290BD0F92912D12000FFF752FF08E057
:10104000FF290CD12000FFF793FF02E02000FFF7FB
:10105000CDFE03B030BD2000FFF776FFF9E7024870
:1010600006F044F8F5E7C04620040110F8B5040086
:101070000F0016001D000068016843688B4210D005
:1010800043685C00E418640083689C4664442780DD
:101090006680257143685A1C42601A4213D00020B2
:1010A000F8BD4A0002608900891849000C3105F03A
:1010B0001DFE002804D003000C3383602060DFE7AE
:1010C00001204042ECE70120EAE70000F0B5DE46EF
:1010D00057464E464546E0B593B005008B461D2465
:1010E0000AAB9C4664440DAB0122210000680BF062
:1010F0000CFD2478A31E062B00D907E12B689E6BFC
:101100002800FFF759FE2868836B0B93F317320012
:101110000BF023FE0123A34009939BB203930133F9
:101120009BB208932000FFF7E1FD109001340A9470
:101130001E230AAA94466344002119701F226244A8
:1011400011701D316144009121002800FFF7DBFC84
:101150000290C723DB00EB5A6E4AAA5A5A43069202
:10116000049400230793994678E0099B0233109A70
:1011700053600A9B0493002305937BE00EAB1B791D
:101180005246511C89B2029A10A8FFF76FFF030064
:10119000079001330AD0109B5A6880235B019A4262
:1011A00068D1059B07930123059363E0109805F030
:1011B000BDFD99E0049B0133049377E0564BEB5857
:1011C000564AA85A401829894143554AA85A09182D
:1011D00041440EAA107958545388524A934228D059
:1011E000109A92685900C9184900511806220EA891
:1011F00005F0BAFD0137A7421BDA0EAB1B889B191D
:10120000013B9946C723DB00EB5A9A461900484632
:1012100003F0F0FE88465146484603F0EBFE01001D
:101220005B46002BCAD03B4BE85AFFF733FC01006A
:10123000C4E7B146A246D144109A5368591E029899
:1012400088420BDA0599002908D191685A00D31811
:101250005B00063BCB180EAA12791A71069B9945C2
:1012600034DA029B039A934200D17EE7059B002B60
:1012700000D183E71D230AAA9446634400931E23EA
:1012800063441F22624404992800FFF73CFC02904B
:10129000039B8342E2D0089B834217D080235B01EB
:1012A000984213D0079B012B00D183E7109B9B68CA
:1012B00041000918490059180EAC0622200005F01B
:1012C00053FD238800274E461C0094E7109805F034
:1012D0002DFD029B089A93420ED00B9AD3172868D3
:1012E0000BF03BFD00230793079813B0F0BCBB46FF
:1012F000B246A946A046F0BD0DAB01221F210AA8A7
:101300008446614428680BF000FCE6E701235B4259
:101310000793E9E73A06000044060000360600009D
:1013200034060000FF0F000070B582B004000068B2
:10133000FFF7DAFB2E4D60532068FFF7D5FB2D4BEE
:10134000E052625B23899A424CD2638998424CD224
:101350002068FFF7C9FB043560532068FFF7C4FB22
:10136000254BE0522389224AA15A625B5B1A9342C1
:1013700000DD1300C722D200A35263891D4AA25A7E
:101380009B1A834200DD03001B4AA3526B46DD1DFE
:101390000122290020680BF0B8FB2B7840251D4066
:1013A0005AB2002A09DBC9239B00E318E361290034
:1013B0002000FFF78BFE02B070BD072213400133FF
:1013C000063A9A4022622100243153009A186B4653
:1013D00020680BF09AFB260020363000FFF74AFB0E
:1013E000E661E4E701204042E5E701204042E2E710
:1013F00034060000360600003A060000F0B5D64676
:101400004F464646C0B584B00600694B1B68002BAA
:1014100000D195E003AB032202A930000BF075FB6D
:101420000322644902A80EF0A1FA002800D08AE045
:1014300003AB032202A930000BF067FB03225E49D5
:1014400002A80EF093FA051E00D081E03000FFF7ED
:101450004BFB81463000FFF747FB070003AB01223F
:101460006946073130000BF050FB6B46D979DB79C8
:101470005BB2002B71DA0A0907231A400132904649
:101480000B40013301229A40924603AB0122694688
:10149000063130000BF039FB03AB01226946053100
:1014A00030000BF032FBC921C900012005F0FEFB22
:1014B000041E75D006604B460381478143468381F5
:1014C000C9239B005246C2500433C11852005244F3
:1014D00003AB30000BF019FBC9239B009846A044D6
:1014E0004046FFF7C7FA4346E3616B4606331B7875
:1014F0009846324B4246E2544B465F433900042043
:1015000005F0D4FB81462E4BE05000282AD04F44F2
:10151000C823DB00E7504346002B28D1274BE25C71
:1015200053009B18E269944663441F1D1B79002BEE
:101530002FD17B78002B2CD1BB78002B29D12DE02B
:10154000FFF702FC66E71F4805F0A0FD002427E036
:101550001D4805F09BFD002422E01C4805F096FD87
:1015600000241DE0200005F0E1FB4C4618E0238933
:1015700062895A43414605F0F1FBCFE7C823DB00FF
:10158000E0586B005B19C0180322390005F0ECFB32
:101590000135228963895343AB42EFDCB36B63604F
:1015A000200004B0E0BCBA46B146A846F0BDC04633
:1015B000C82700203C040110540401103C06000020
:1015C0004406000040040110580401106804011092
:1015D00010B582B00400FFF741FB6B46012269465B
:1015E000073120680BF091FA09E02000FFF712FDA7
:1015F0006B4601226946073120680BF086FA6B467C
:1016000007331B782C2B06D03B2B0BD0212BECD097
:101610000120404207E02000FFF786FE431C02D075
:10162000012000E0002002B010BD70B504000D00E4
:10163000C823DB00C158038942895A4353009A18D2
:10164000280005F091FB29002000FFF7BFFA70BDCC
:1016500010B54268D31700680BF07FFB10BD000087
:1016600010B50400034BC05805F060FB200005F0E6
:101670005DFB10BD44060000F0B58BB005000E0008
:101680001400C8B22870D7B26F70D208D2B2AA7054
:10169000EB70109B6B6050432861013005F0E8FA55
:1016A000E860002841D00130E86003ABAE221A7038
:1016B00027325A70553A9A702832DA70013F1F71FA
:1016C0002B325A7100229A714032DA714D321A72FD
:1016D0002A7A002A2BD0102103AB5972A1219972CA
:1016E0002731D972123119736400A64221DDD8392D
:1016F00003AB5973812199737E31D97326391974DB
:10170000002A18D0222203AB5A74DB229A74AB3A17
:10171000DA7474321A7502325A7509329A758F3A30
:10172000DA7500221A7600240CE0286123E01421E7
:10173000D2E71221DCE7F122E5E71049104805F075
:10174000D5FC0134182C15D803AB1A5D002369466B
:101750000B724A72E9780093023302AA686808F0B3
:10176000B9F9831CE9D0431CEBD10449054805F0C5
:10177000BDFCE6E701200BB0F0BDC04680040110BF
:1017800090040110B004011010B50300C0681A697C
:10179000002105F0E3FA10BD10B503788B420DD996
:1017A000447894420AD9C068D40863435B1807217F
:1017B0000A4006399140C25C8A43C25410BD10B53C
:1017C00003788B420DD9447894420AD9C068D40872
:1017D00063435B1807210A4006399140C25C0A4303
:1017E000C25410BDF0B5D6464F464646C0B58146F8
:1017F000884617009A46089E002509E0E2194346EC
:10180000E9184846FFF7C8FF0134B442F6D3013562
:10181000554501D20024F8E7E0BCBA46B146A846D7
:10182000F0BDF0B5D6464F464646C0B5814688461F
:1018300017009A46089E002509E0E2194346E91878
:101840004846FFF7BCFF0134B442F6D30135554595
:1018500001D20024F8E7E0BCBA46B146A846F0BD84
:10186000F0B5DE4657464E464546E0B589B081465E
:101870008A4693461E0012AB04CB04921978079156
:10188000D3788B4245D813798B4242D31278D10852
:10189000072313405A1E9341CB1805930023069348
:1018A00023E0013464B26D08072C0EDCEB07F8D599
:1018B000FA00A21872435A440399714351440096A6
:1018C00033004846FFF7ADFFEBE701239C46E044B9
:1018D0000137059B9F4204D2049B42469D5C002435
:1018E000E2E7069B0133DBB20693049B5B78069A22
:1018F00093420ED9049AD27807998A1A5343069ACA
:10190000039294466344059A53430533984600274F
:10191000DFE709B0F0BCBB46B246A946A046F0BD21
:10192000F0B5D6464F464646C0B582B0824691468F
:1019300098460A9F0B9E0D000EE00136019300971A
:1019400043464A4629005046FFF78AFF7C78BB7819
:10195000E41843465C432D193378002BEDD102B0D7
:10196000E0BCBA46B146A846F0BD000010B582B052
:10197000049C0194024C0094FFF7D2FF02B010BD0A
:10198000D004011030B587B0050004AB21221A70D5
:10199000002159700078421ED2B29A702224DC7065
:1019A0001971A97801395971402801D0002409E042
:1019B0002021597020329A70F8E71D491D4805F022
:1019C00095FB0134052C15D804AB1A5D002369463C
:1019D0000B734A73E9780093023303AA686808F02E
:1019E00079F8831CE9D0431CEBD11149124805F06A
:1019F0007DFBE6E7EB68013B40221A706868E978F6
:101A0000EB685A1E2B6901330024009408F062F839
:101A1000831C03D0431C06D007B030BD07490548DE
:101A200005F064FBF8E70549034805F05FFBF3E7C1
:101A30008004011090040110B0040110C0040110D2
:101A4000F0B583B004000D00160000F0D5F80028B2
:101A500001D003B0F0BD154F00973B0001220121DA
:101A6000053001F0EDFE00962B0022000121104808
:101A700001F0F0FF31006943200003F0E3FA0400B5
:101A80000C4B009300220221042001F0D9FE0094A7
:101A9000230000220121052001F0D2FE00973B0027
:101AA00002220021062001F0CBFED2E7006CDC020E
:101AB00000800240001BB700F0B5DE4657464E4698
:101AC0004546E0B583B080468B4692460193A023FD
:101AD0005B0099462AE0013C002C1ED025007D4386
:101AE0002900300003F0AEFA4045F4D1290030005F
:101AF00003F0A8FA0029EED1144B4A4653435A4644
:101B0000136053461F60019B1C60012003B0F0BCB2
:101B1000BB46B246A946A046F0BD013F002F01D00A
:101B20003C00D9E701235B429C46E1444B460F2B26
:101B300009D9074E4B465E43064BF218064B9A42B4
:101B4000F0D80727EAE70020E0E7C046001BB7000F
:101B5000E02E0000508EF4FF50F80C0010B583000A
:101B6000084A944663441C6840226240C0241440E2
:101B70008022520113431C60C000034B9C4660440A
:101B8000416010BD04C001400040014080000B4B8B
:101B90009C46604400290DD00823002A0CD0042262
:101BA0001343026853400C22134080225201104319
:101BB000036070470023F0E70022F1E704C0014012
:101BC0008000064B9C46604409010368594030235D
:101BD000194080235B0118430160704704C0014035
:101BE00010B501238340D022120693629361052130
:101BF000FFF7B4FF10BD0000034B1B680220184024
:101C0000431E9841C0B2704700C00640EFF31080F9
:101C100072B6034B1B68002BFBD0BFF35F8F70477E
:101C20002C0100D0BFF35F8F024B00221A6080F3BB
:101C3000108870472C0100D0F8B506000C00150084
:101C4000FFF7E4FFE308F718F15C072222400123C5
:101C500093400B4205D1DBB20B433B70FFF7E2FF31
:101C6000F8BD2100280002F0C7F8F0B583B00600E7
:101C7000019114001F00FFF7C9FF00E00134BC42CE
:101C80000CD8E308F518F35C0721214001228A40B3
:101C90001A42F3D1D2B21A432A7001E001246442FD
:101CA000FFF7C0FF002C02DB200003B0F0BD019B5A
:101CB000002BF9D0089802F09FF80000002307E0FD
:101CC000054A9A189200BFF35F8F0021116001331B
:101CD0001F2BF5D97047C04640000034054A1078E4
:101CE000431CDBB21370172B02D9130010221A7099
:101CF0007047C046B412002000B583B00100044B09
:101D000000931F2318220348FFF7AFFF03B000BD65
:101D1000B0060110D4270020074B9B6810308000CC
:101D20001950BFF35F8FBFF35F8F044B0021196021
:101D300082F310887047C04600ED00E0240100D017
:101D400010B5091A081F0A4B9C466144094A914282
:101D500008D8C30706D440104005400D064B184371
:101D600080B210BD054B064AA321064801F0AAFF28
:101D7000FC070000FE0F000000E0FFFFCC06011092
:101D80003C090110FC06011010B5091A04394C0871
:101D9000090B08D14905490D064A11430180064B3C
:101DA0002343438010BD054B054AAB21054801F094
:101DB00089FFC04600F0FFFF00F8FFFF3C0701105D
:101DC00010090110FC06011001238340034A10682A
:101DD0001840431E9841C0B27047C04600E100E081
:101DE000002904D0034B1860034B18607047034B65
:101DF0001860FBE780E200E000E100E080E100E045
:101E000010B5012383401800FFF7EAFF10BD000062
:101E100001238340014A13607047C04600E200E09E
:101E2000024B9B6810308000C058704700ED00E006
:101E300010B5FFF7F5FF002805D0054BC01A2F2875
:101E400003D8012010BD0020FCE70020FAE7C046BF
:101E5000B812002070B504000D00EFF3108672B6C2
:101E60000C4B1B68002BFBD0BFF35F8F2000FFF7EC
:101E7000D7FF094B984201D0A84205D13200290072
:101E80002000FFF749FF70BD044B054A8621054835
:101E900001F018FF240100D0CD0100104C07011003
:101EA00070090110FC060110F0B5DE4657464E469B
:101EB0004546E0B589B0814601911500EFF3108ADF
:101EC00072B6744B1B68002BFBD0BFF35F8F724B55
:101ED0000027DF57002F40DB7C00E419A4006F4887
:101EE00024180622A2566C4B1A706D4B9A684B460A
:101EF00010339B00D35898461E001B1A2F2B38D93D
:101F0000684B98452FD105AE674B33807B009B46CD
:101F1000D8198000614B9846404402306349FFF76E
:101F20000FFF7080624BB380FF23B371F571019B8B
:101F300007935F44BF0047440ECE0EC701231C43E6
:101F4000A046524641464846FFF7E6FE09B0F0BCBF
:101F5000BB46B246A946A046F0BD564B564AD721CD
:101F6000564801F0AFFE564B534ADE21534801F06C
:101F7000A9FEC04340440C2103F064F8002912D1AB
:101F800001239E43B34633000026DA79AA4211D9D1
:101F90000621595600290CDB4A00521892001E00F7
:101FA0003E4B9B18F1E7474B434AEA21434801F077
:101FB00089FE1E00002E3AD005AB434A1A80813AB2
:101FC0005A800623F3560293002B17DA3F4805ABDD
:101FD0009B469880029A9A71DD71019A0792301D92
:101FE0002100FFF7ADFEB080B7717B00DB199B00CD
:101FF0002A4FFF185B4607CB07C7A2E77800C01936
:102000008000264BC0180430321DB388D90A1C2921
:1020100007D15B055915023149005118FFF790FEB1
:10202000D5E72B4B2B4AB121244801F04BFE05AEDE
:102030001D4B33807B000293D8198000174A9046CD
:10204000020042440392901C1849FFF779FE708009
:10205000039A101D5946FFF773FEB0801E4B5A4677
:102060004146521A524153431B0DB371F571019A07
:102070000792029B9C466744BF0047440ECE0EC7A2
:10208000114B5A461380813B538001231C43A046C9
:1020900057E7C046240100D01F2F0020B8120020AF
:1020A00000ED00E0CD01001000A1FFFFE8120020CC
:1020B00001BDFFFF8407011058090110FC06011043
:1020C000AC070110D40701100148000001BD000059
:1020D0004808011048090110AAAA0000F0B5CE4630
:1020E000474680B583B006000D00EFF3108872B646
:1020F000564B1B68002BFBD0BFF35F8F544B9A6885
:1021000034001034A300D758524B9F4207D0AF423F
:1021100000D198E00197504BFB1A2F2B09D942466A
:1021200039003000FFF7F8FD03B0C0BCB946B04637
:10213000F0BD3000FFF748FE814600213000FFF778
:102140005FFEBFF35F8FEFF30581002901D08C4262
:1021500011D10123019C9C430022A368AB4212D001
:102160000622A256002A0DDB53009B189B0022007A
:10217000394CE418F1E73621384B394AFF313948F8
:1021800001F0A0FD2200AB4256D106256557002D77
:1021900038DB6B005B199A002F4B9B189A68A26082
:1021A000DA79E27106229A56A2719B795BB2002B12
:1021B0000FDA2D48A0806B005B199B00264AD318CC
:1021C0002A4A11789971157049463000FFF718FEB8
:1021D000A5E7201D6B005B199B001F4A9B181A1D69
:1021E0009B88D90A1C2907D15B055B15023359006E
:1021F0005118FFF7A5FDDDE71D4B1E4AB121194817
:1022000001F060FD002912D1002A0ED0FF23937146
:10221000194B9380154A1378A371184B0E49641A11
:10222000644163431B0D1370CEE70A4FF2E7201D94
:102230001349FFF7A9FDC7E76A21124B084AFF318E
:10224000084801F03FFD034F69E7C046240100D074
:1022500000ED00E0CD010010B81200206008011070
:1022600028090110FC06011001BD00001F2F0020ED
:10227000480801104809011001BDFFFFAAAA00008B
:10228000F21200209408011070B5012101432E4B79
:10229000CB1A2F2B28D8EFF30583002B2BD0EFF38D
:1022A000108C72B6294A1268002AFBD0BFF35F8FE8
:1022B000274A0400244D641B64416243120D54B24A
:1022C000244A92689B00D2588A421BD00022032ADB
:1022D00032D853009B189B001B49CB189B795BB2EB
:1022E000A3421FD00132F2E7C7211B4B1B4A490012
:1022F0001B4801F0E7FC92211A4B184AFF3118489D
:1023000001F0E0FC134A92681749D150174B1A7834
:1023100082711C70BFF35F8F0C4B00221A608CF32C
:10232000108870BD0D005300991889006918FF26A8
:102330008E710F4A8A80E9E7D1210E4B074A490086
:10234000074801F0BFFCC046B8120020240100D0AD
:10235000AAAA000000ED00E09C080110F40801109A
:10236000FC060110C4080110CD0100101F2F002031
:1023700001BDFFFFD00801100022044B02E0044918
:1023800002C30132072AFAD97047C04600E400E0D0
:102390008080808000B583B00100064B0093052348
:1023A00000220548FFF761FC002801DB1F23181AF3
:1023B00003B000BDD8080110242F002070B5040020
:1023C0000E001500FFF78AFC0100200000F006F85F
:1023D000A680E580BFF35F8F70BD0000024B9C4676
:1023E00061448900016070474000003410B504006A
:1023F000FFF774FC01002000FFF7F0FFFF232371BB
:10240000BFF35F8F10BD10B50400FFF767FC01003C
:102410002000FFF7E3FFFF23237100236371BFF365
:102420005F8F10BD034B9C46614489000160BFF380
:102430005F8F70474000003410B504000120FFF7A3
:102440005BFC01002000FFF7EDFF10BD10B50C0094
:10245000CB68834207D108000B699847002809D050
:102460002068616810BD5221054B064AFF310648BD
:1024700001F028FC0023E36000200021F2E7C046C1
:10248000400B0110A40D0110540B011070B5050094
:102490000C00080000F07EFF0949200000F0BEFE9D
:1024A000FFF71CFC074B9C466044800068602C755D
:1024B000D0231B061B786B75A400034BE55070BD41
:1024C000D127001040000034BC2C00200A4B1A68B1
:1024D000EFF3108172B61368002BFCD0BFF35F8F4F
:1024E000054B1B68BFF35F8F00221A6081F31088D1
:1024F00040BF002000217047D82E002010B50029D1
:1025000022D003681B7B99421ED8174B9C4661441E
:10251000090183689C4661440C684968002A19D007
:1025200003681B7B9A4215D883680F48844662442F
:1025300012019A1810685368020001208B4201D8DA
:102540000ED00020C0B210BD084B094A3C210948FA
:1025500001F0B8FB054B064A3C21064801F0B2FBEE
:10256000A242EFD8EDE7C046FFFFFF0F8C0B011032
:102570000C0E0110540B011010B500291ED0037B66
:1025800099421BD84B005B18033B0468A446634484
:10259000002919D0002A1DD0914221D0002A25D02F
:1025A000047BA24222D80468500080180338201807
:1025B0008170197800291FD11A7010BD104B114A73
:1025C0006821114801F07EFB104B114A6F310E4813
:1025D00001F078FB0F4B0E4A70210B4801F072FBA3
:1025E0000D4B0B4A7121084801F06CFB044B054A66
:1025F0006821054801F066FB41701A70DDE7C046AE
:10260000B00B0110780E0110CC0B0110180C01104A
:10261000540E0110240C0110300C011070B506008E
:102620000D001400002914D0002A14D080687368AB
:102630009847002806D0220029003000FFF79CFFB1
:10264000280007E02A0021003000FFF795FF200056
:1026500000E0100070BD0800FCE70000F0B583B09A
:102660000500009201930AAB1C780BAB1F78002C7D
:1026700026D003685A7B944207D10123002B19D13D
:10268000002C3BD1200003B0F0BD002C0CD01A7BF5
:10269000944209D81A6863001B19033BD3189B782E
:1026A000002BEBD00123E9E73E4B3F4A68213F482E
:1026B00001F008FB3E4B3F4A67213F4801F002FB17
:1026C00003689C7B002CDBD012D01A7B94420FD87D
:1026D00062001219033A19688C4662445178997362
:1026E000002900D1D9730023937053701370C7E78A
:1026F0002C4B2D4A68212D4801F0E4FA002C3AD0E9
:102700002B681B7B9C4236D82C4BE3181B01AA6814
:1027100094466344009A1A60019A5A60089A9A6033
:10272000099ADA602E68002C2BD030D0337B9C4283
:102730002DD863001B19033B326894466344002282
:102740009A705A701A70717B22003000FFF766FF92
:102750007073844200D095E7287D009A019B00F0B9
:10276000A5FD061E01D0002F17D00C9B002B00D119
:1027700088E71E7086E7124B124A3C210E4801F092
:10278000A1FA114B114AA521084801F09BFA054B0B
:10279000054A6821054801F095FA2868210000F0F3
:1027A000D3FFE2E7B00B0110780E0110CC0B011043
:1027B000480C0110840E0110540B0110FFFFFF0F95
:1027C0008C0B01100C0E0110500B0110680E011043
:1027D000F0B5DE4657464E464546E0B58BB009900B
:1027E000002308938200B54BD658370052E0B44B13
:1027F000B44A3F21B44801F065FAB44BB44A3C21D5
:10280000B44801F05FFA002901D1002869D1002104
:10281000404600F08FFFA04219D12A686B680692EB
:102820000793AB689846EB689A464346002B14D052
:10283000002C18D03B681B7B9C4214D8631EFA689E
:10284000D35C08931B0218433861002015E0A24BAB
:10285000A24A8E219F4801F035FAA14B9F4A92214E
:102860009C4801F02FFA994B9E4A4121994801F06A
:1028700029FA00239A46984600207B68BFF35F8FB1
:1028800000221A6086F310884346002B32D10028BC
:1028900000D10CE100F07EFC02000B1EA7DB002043
:1028A0000021069007917868EFF3108672B60168F0
:1028B0000029FCD0BFF35F8F396888464C7B002C21
:1028C000D7D09AD0097B8C4297D8874965182D01BB
:1028D000B9688C46654428686968801A994100295E
:1028E00091DD2A686B68099800F0E0FC00239A46A5
:1028F0009846C2E7089B1B0223439946514618009D
:10290000C04705000E007A68EFF3108B72B61368AB
:1029100059424B41D9B2002BF9D1BFF35F8F002E42
:102920001EDB002E46DD3B69002B47D04B456DD1A9
:1029300000F030FC02000B1E6EDB52197341002BBD
:1029400070DB002B72DB00210491013103910294B2
:1029500051460191414600913800FFF77FFE4CE05F
:102960003B69002BDDD04B4514D1069A079B521BC7
:10297000B341002B14DB002B16DB00210491013145
:102980000391029451460191414600913800FFF7AE
:1029900065FE32E0554B514AA1214E4801F092F9B3
:1029A00001225242524BE6E7454B464A3F214648F8
:1029B00001F088F9002E01D1002DB4D13B68002C24
:1029C00050D05A7B944237D1012100294AD1DA7B79
:1029D000002A4DD19A7B002A03D1DA7B002A5AD1F2
:1029E0009C73DC73002C5CD03B681B7B9C4258D8EA
:1029F000FA68013C135D0133135500233B617A688B
:102A0000BFF35F8F13608BF3108843E7374B334A74
:102A1000A421304801F056F9294B2A4A3F212A487F
:102A200001F050F901225242314B8AE7244B254AEA
:102A30003F21254801F046F9002C0DD01A7B944225
:102A40000AD862001219033A1868844662449278E0
:102A5000002ABAD00121B8E7264B274A6821274827
:102A600001F030F9264B274AF621244801F02AF9D3
:102A7000002A0AD0197B8A4207D851008A18033AE3
:102A800019688C4662445470A4E71A4B1A4A6821AC
:102A90001A4801F017F91C4B1A4AFB21174801F09C
:102AA00011F90A4B0F4A41210A4801F00BF90BB00A
:102AB000F0BCBB46B246A946A046F0BDBC2C0020E7
:102AC0008C090110D80D0110A80901108C0B011000
:102AD0000C0E0110540B0110700C0110F00D0110C0
:102AE000880C0110300E0110FFFFFF0F940C011035
:102AF000FFFFFF7FB00B0110780E0110CC0B01100F
:102B0000D00C0110440E0110F40C011010B50C4B48
:102B10005B68002B04D00A210A48FFF75FFC10BD58
:102B2000074C2300084A1021206800F0FDFC032018
:102B300000F014FB03212000FFF7A8FCEBE7C046E0
:102B400000130020D82E0020FD24001010B5064BE5
:102B50005B68002B01D0044810BD044B044A5E2181
:102B6000044801F0AFF8C04600130020080D011022
:102B7000180E0110540B011070B50500182004F058
:102B800077F8040002000C49280000F0D4FC206013
:102B90001021280004F08AF8A0600121280004F028
:102BA00085F8E060012000F0E5FA01002000FFF761
:102BB0006DFC200070BDC046FD240010F0B5DE465F
:102BC00057464E464546E0B58BB0804616001F007E
:102BD000149B9A46159B994616AB1B789B461F2360
:102BE00002AA9446634400221A702BE0002809D000
:102BF00042461268127B904204D8421E4146C96880
:102C00008A5C41E0404B414A4121414801F05AF879
:102C100007984CE0361BAF41002F07DB002F11DA7D
:102C20003C4B3D4A3F213D4801F04CF8012676429D
:102C30003B4FF3E7374B384A3F21384801F042F821
:102C4000002F4FDB43465A68EFF3108472B61368C7
:102C500059424B41D9B20791002BF8D1BFF35F8F96
:102C60001F3302AA94466344049300230393029300
:102C70004B4601935346009332003B004046FFF71A
:102C8000EDFC031EB2D1020041464968BFF35F8FDD
:102C900000250D6084F31088002B29D01F2302A982
:102CA0008C4663441B78002BB2D112021043002BD8
:102CB00020D05B46002B1DD04946D04704000D00B4
:102CC00003000B431DD00029A4DB00F063FA0600CB
:102CD0000F1EAFDB36196F41002FB1DA01267642A5
:102CE0000F4FADE70B4B0C4A3F210C4800F0EAFFB9
:102CF000012040420BB0F0BCBB46B246A946A046FC
:102D0000F0BD0798F6E7C0468C0B0110300E01109D
:102D1000540B01108C090110D80D0110A8090110E5
:102D2000FFFFFF7FF8B50400002900D162E0426890
:102D3000EFF3108572B6136858424341D8B2002BA6
:102D4000F9D1BFF35F8FCBB22268567BB3421BD160
:102D50000120002848D0206988422BD0090AC9B236
:102D6000002B2ED02068007B83422AD8581EE668AC
:102D7000305C88422BD000206368BFF35F8F002255
:102D80001A6085F31088F8BD002B0DD0167BB34276
:102D90000AD85E00F618033E1768BC466644B6784B
:102DA000002ED6D00120D4E7134B144A68211448D2
:102DB00000F088FF2C21134B134AFF31134800F019
:102DC00081FF134B134A4121104800F07BFF19008B
:102DD000100000F0B9FC0028CED199210E4B0A4A10
:102DE00049000A4800F06EFF23698B42C4D10023DA
:102DF0002361C1E70020C6E7B00B0110780E011077
:102E0000CC0B01102C0D0110C00D0110540B011042
:102E10008C0B0110300E0110500D0110407D7047D9
:102E2000F0B585B00700100019000C9E13000B438D
:102E300001D101200021B7600A9B336130607160CD
:102E40000B9B7361CA1713005040040051400D00E2
:102E5000A41A9D4100F09EF902000B1E12DB12190C
:102E60006B41002B14DB002B16DB01210291019634
:102E70000C4900913800FFF7A1FEF060C043C00F7D
:102E800005B0F0BD084B094A3F21094800F01AFF80
:102E900001225242074BE6E7034B044A3F21044814
:102EA00000F010FF4D2400108C090110D80D011006
:102EB000A8090110FFFFFF7FF0B587B006000F00E3
:102EC000EFF30583002B1FD106246442E517A419F4
:102ED0007D418D4202D803D1844201D900240025CE
:102EE000002D14DB0494059500F054F902000B1E2C
:102EF00013DBA41A9D41002D17DC14D030003900DB
:102F000000F054F907B0F0BD234800F075FF234BE3
:102F1000234A3F21234800F0D5FE204B204A3F2181
:102F2000204800F0CFFE002CE8D0FFF70FFE002372
:102F3000029301931C4B0093049A059BFFF73EFEFE
:102F4000002818DADAE7002300E00023002BD5D1AF
:102F5000164B1A68EFF3108172B61368002BFCD081
:102F6000BFF35F8F114B1B68BFF35F8F00221A60A6
:102F700081F3108820BF0499059A0D4B5B6A9A4231
:102F8000E3D80B48806A884203D29A42DBD00123FF
:102F9000DCE70123DAE7C046540D01108C0901106B
:102FA000D80D0110A8090110CD240010D82E002042
:102FB0000040054070B504000D0000F0EBF8020081
:102FC0000B1E0ADB200029008018594100290ADB6A
:102FD00000290CDBFFF770FF70BD084B084A3F214A
:102FE000084800F06FFE012040420749F0E7034B1C
:102FF000034A3F21034800F065FEC0468C090110DA
:10300000D80D0110A8090110FFFFFF7F10B5FA22AB
:1030100092000023002103F003FDFFF7CBFF10BD5A
:1030200070B584B005000C00EFF30583002B1ED1B2
:10303000FFF78CFD002302930193224B00932A009B
:103040002300FFF7BBFD061E23DD20BFFFF77EFD3B
:103050003100FFF767FE1C4B5B6A9C422DD81A4A71
:10306000926AAA422CD29C4225D0012026E0164B1F
:103070005B6A994209D8144A926A824207D29942FD
:1030800001D001201AE0002018E0002016E0012005
:1030900014E00D4B5B6A9C4209D80B4A926AAA4223
:1030A00007D29C4201D0012008E0002006E0002069
:1030B00004E0012002E0002000E0002004B070BD28
:1030C0000120FBE7CD2400100040054070B5EFF370
:1030D00005801038EFF3108C72B61A4B1B68002B6A
:1030E000FBD0BFF35F8F01221300834016494B636F
:1030F00016490B60164909780C00C440224214D0CE
:10310000114A546A8200134D5259944206D38200E8
:10311000114C125999430E4B197007E00A4A031DCE
:103120009B0099589950002200E00022BFF35F8F66
:10313000044B002119608CF31088002A00D09047BE
:1031400070BDC046280100D0004005403C700540DD
:10315000232F0020F02E0020B826002010B50100FB
:10316000024A0348FEF768FD10BDC046A80E0110D4
:103170001C2F002000B583B00100044B00930323F3
:1031800000220348FEF771FD03B000BDCC0E011014
:103190001C2F0020044B5B6A034A906A1900536A93
:1031A0009942F9D17047C04600400540084B5B6A20
:1031B00001E0074B5B6A8B42FBD301E0044B5B6A87
:1031C0008B4203D1024B9B6A8342F7D37047C046C0
:1031D0000040054070B504000D00FFF7DBFF020062
:1031E0000B0020002900801859418B4202D804D1DD
:1031F000824202D901204042C117002902DBFFF7B9
:10320000D5FF70BD024B034A3F21034800F05AFD31
:103210008C090110640F0110A809011070B5040099
:103220000D00EFF3108672B61B4B1B68002BFBD012
:10323000BFF35F8F002D1CD02000FEF7F1FD174B70
:1032400083420BD019002000FEF704FE012120006C
:10325000FEF7D6FD0123A340114A1360A400114BD1
:10326000E550BFF35F8F0C4B00221A6086F3108885
:1032700070BDA2000B4B0021D1500122A2400A498F
:103280000B7893430B7005492000FEF727FF0021C0
:103290002000FEF7B5FDE4E7280100D0CD30001096
:1032A00038600540B8260020232F0020F0B5DE4608
:1032B00000B584B00400150001921E000293FFF7D0
:1032C00069FF03958E4202D84ED185424CD9EFF367
:1032D000108B72B6274B1B68002BFBD0BFF35F8FA0
:1032E000254A17780125A540EBB23B431370234BC9
:1032F0005D63221D92000199D150A20020490298DD
:1033000050501B6A2B4212D11C4B1B6C2B4208D015
:103310000020BFF35F8F174B00221A608BF31088D9
:1033200023E0184B184AC521184800F0CBFCFFF7E2
:1033300031FF8E4214D802D1039B834210D80E4B2A
:103340001B78BB420ED00D4B1D625D631F200440F5
:103350000123A3400E4A1360074B1F701E38D8E7A5
:103360000020D6E70120D4E7012004B080BCBB4692
:10337000F0BDC046280100D0232F002000400540AA
:10338000F02E0020E00E0110480F0110040F011074
:1033900080E200E0EFF3108C72B60B4B1B68002B41
:1033A000FBD0BFF35F8F01238340084A13620849B3
:1033B0000A789A430A70BFF35F8F034B00221A60AA
:1033C0008CF310887047C046280100D000400540AB
:1033D000232F002010B500291ED0037B99421BD853
:1033E0004B005B18033B0468A4466344002919D0D2
:1033F000002A1DD0914221D0002A25D0047BA24270
:1034000022D8046850008018033820188170197879
:1034100000291FD11A7010BD104B114A68211148A4
:1034200000F050FC104B114A6F310E4800F04AFC7E
:103430000F4B0E4A70210B4800F044FC0D4B0B4A19
:103440007121084800F03EFC044B054A68210548FC
:1034500000F038FC41701A70DDE7C046B00B011077
:1034600068100110CC0B0110180C01105410011041
:10347000240C0110300C011070B506000D00140072
:10348000002914D0002A14D0806873689847002857
:1034900006D0220029003000FFF79CFF280007E03B
:1034A0002A0021003000FFF795FF200000E0100007
:1034B00070BD0800FCE7000010B500234373013322
:1034C0008373037BC3730123027B9A4214D9002BBD
:1034D0000CD0027B934209D85A00D218033A0168F3
:1034E0008C4662440133DBB25370EDE70B4B0C4A60
:1034F00068210C4800F0E6FB002A09D0924207D868
:10350000016853009A18033A8A180023537010BDBB
:10351000024B034A6821034800F0D4FBB00B0110B2
:1035200068100110CC0B011010B50173426083606C
:10353000FFF7C2FF10BDF8B505000E0017001021FF
:10354000012003F0B3FB04000321280003F0AEFBCD
:1035500020603B00320029002000FFF7E5FF20003B
:10356000F8BD000070B50400081E00D170BD002930
:1035700034D0237B994231D84B005B18033B22683F
:10358000944663445A78002AF0D02DD0237B9A4287
:103590002AD853009B18033B21688C4663445D780E
:1035A00000215970002825D0237B984222D843005F
:1035B0001B18033B21688C466344002159700100AD
:1035C0002000FFF759FF060029002000FFF7CAFF7F
:1035D000020031002000FFF74FFFC7E7084B094A00
:1035E0006821094800F06EFB054B064A6821064831
:1035F00000F068FB024B034A6821034800F062FBBD
:10360000B00B011068100110CC0B011070B5050053
:103610000C00160000292FD034D0037B994231D8FA
:103620004B005B18033B0268944663445A78002AB7
:103630002ED19A78002A31D11978FFF793FF030031
:10364000002E0AD0EA7B002A2ED1AA7B002A03D1C1
:10365000EA7B002A3BD1AC73EC73002B3DD1002CEC
:103660004FD02B7B9C424CD82B6861000C19033C3B
:103670001C190023637070BD254B264A382126484B
:1036800000F020FB254B264A6821264800F01AFB53
:10369000254B204A3A21204800F014FB234B1D4AB9
:1036A0003B211D4800F00EFB002A0AD0297B8A42EC
:1036B00007D851008A18033A29688C46624454702E
:1036C000C3E7164B164A6821164800F0FBFA184B60
:1036D000104A4221104800F0F5FA002B0BD02A7B4B
:1036E000934208D843001B18033B2A68944663445E
:1036F00000229A70B3E7094B094A6821094800F093
:10370000E1FA064B064A6821064800F0DBFAC0469B
:103710007C0F011040100110840F0110B00B01103C
:1037200068100110CC0B0110BC0F0110E40F011048
:10373000F40C011070B504000A00457B2900FFF766
:1037400065FF6073280070BD70B50400002967D064
:10375000437B8B420ED0002911D0037B99420ED8B7
:103760004B005B18033B0268D0188378002B0CD108
:10377000002056E00121FFF7DDFF012051E0294B39
:10378000294A6821294800F09DFA002B20D0227B8D
:1037900093421DD85A00D318033B2268D2182568DB
:1037A000EB5C8B421AD0002B1BD0227B934218D8A3
:1037B0005A00D318033B2268D21853788B4216D094
:1037C000002BF0D11A4B1B4A6B211B4800F07AFAF0
:1037D000144B154A6821154800F074FA43781370A9
:1037E00007E0104B104A6821104800F06BFA43784C
:1037F000537000238370437001222000FFF706FFFF
:103800000200617B814205D02000FFF735FE607326
:10381000012006E0094B074A7121074800F052FADF
:10382000002070BDB00B011068100110CC0B01100E
:10383000D008011028100110840F01100810011089
:10384000F8B5DE4657464E464546E0B505000F0042
:1038500092460A9A934250D31A0E91461E020A9A31
:1038600000233000494601F02BFC80466C006419AF
:10387000A400304B9C4664446368834200D260607D
:103880002B1FDBB29B46012B3DD9C0239B01234359
:10389000802212011A60AB00274A9958002907D0EC
:1038A000506901F0CFFB431C5800C0180338FDD20B
:1038B00053465A0123685A40E0231A4080235B0193
:1038C00023431A605A46012A28D980239B012343A7
:1038D000802212011A604346636042460023300092
:1038E000494601F0EDFBAD00134B58510120F0BCEF
:1038F000BB46B246A946A046F8BD104B104A33213C
:10390000104800F0DFF9012FBFD1C0239B012343F2
:1039100003221A60A368DB07FCD5C9E72168794058
:1039200003220A401A60A2680123BB401342FAD066
:10393000CBE7C04600800040DC2700207410011057
:10394000CC1001108810011030B583B00C2000F0AD
:1039500011F9FEF751F900280DD0002304E0990079
:103960002D4A2E4888500133092BF8D92A4B2C4A6E
:103970005A6203B030BD2B4B00229A6700F06CF9FD
:10398000294B01221A60274B5B6C012BFBD1274B83
:1039900003221A60234B9B6B012BFBD10133009355
:1039A0000433234A0121234800F054F805230093EF
:1039B000214A0121214800F04DF8214B00930022BB
:1039C00002210420FFF73CFF1E4D00952B00002232
:1039D00001210520FFF734FF104C00942300002242
:1039E00000210720FFF72CFF009423000022002174
:1039F0000820FFF725FF0A4B009323000022002137
:103A00000920FFF71DFF00952B0000220021062052
:103A1000FFF716FFADE7C046DC270020006CDC0294
:103A20001BB70000008000403CB0004030B00040B8
:103A3000002F685900800240008C864700C0024079
:103A4000001BB700405973078000014BC0587047F6
:103A5000DC270020F0B5C64600B504000E001700B4
:103A60001D00374801F0EEFA8046364BFA18364B07
:103A70009A4239D80100380001F0E4FA0200103A05
:103A800098235B009A4235D86B1E062B38D8069BCC
:103A9000013B062B34D83F09474537D32D04069BFD
:103AA0001A0315432368002B36DB284B9C4244D075
:103AB00080225201264B1A60264B1A60264B9B68C7
:103AC00011009943FAD12660A060231DC022920103
:103AD0001A43212313602368002BFCDAE5600823D6
:103AE000136080BCB846F0BD1C4B1D4A11211D4817
:103AF00000F0E8F81C4B1A4A19211A4800F0E2F8C5
:103B00001A4B174A1C21174800F0DCF8184B144ACE
:103B10002321144800F0D6F822683F231340B34213
:103B2000C3D1A3681B051B0D8342BED1E368EE22FF
:103B3000D2021340AB42B8D1D3E780229201B9E759
:103B4000001BB70080E84BD380F8A93200C00240C8
:103B500000E0004000F0004000C00040DC10011018
:103B6000001201103C1101107C110110981101107C
:103B7000E411011080239B000343014AD362704784
:103B800000800540024B1A68024B5A607047C046DD
:103B9000A82C00200080054010B50200164B8020A4
:103BA000C0051860154B1648186000290AD0154B3F
:103BB000E021C9041960002A09D1124B80221206A3
:103BC0001A6010BD0C4BE021C9041960F3E75301E2
:103BD0009B1A9800801800010B4B186080235B042F
:103BE000984202D3084B094A1A60FFF7CBFF054BF6
:103BF0008022D2051A60E4E700B0054008200140A9
:103C0000FCFF010000A00540A82C0020FFFFFF00E2
:103C100010B5030010000C4A8024E4051460002B4A
:103C20000DD001221343094A094CD461094C5C4070
:103C30001462516293620021FFF7AEFF10BD034B87
:103C40000022DA61F7E7C04600B005400080054079
:103C5000D3C007B02D3FF84F064BAA2212011A60BD
:103C60002F22DA60044B054A1A60024B5B68002B76
:103C7000FBDA7047004002400060024000B0FA00EA
:103C800000BEFDE703000A4A1268002A08D0084A6D
:103C90001068C318074A9A4206D3054A1360704752
:103CA000034A05491160F2E701204042F7E7C046A8
:103CB000A428002000000420282F002010B5FFF7C2
:103CC000DFFF000010B582B00C001900002A0CD0F4
:103CD000084B002A0BD001920093230002000648F3
:103CE00003F004FA0120FFF7CBFF044BF1E7034A8E
:103CF000F1E7C0460C1201101C120110E82A011055
:103D000070B52B4B2B4A1A602B4B2C4A1A602C4B4C
:103D10009A682A4B9343FAD12A4C01E008CC984781
:103D2000294B9C42FAD3FFF70FFE234B274A1A6018
:103D3000234B9B68DB43DB01FAD1254B40229A677A
:103D40005A671A67DA66234C09E0234B234A872116
:103D50002348FFF7B7FF2000FEF748FB0834214B4C
:103D60009C4209D22368002BF5D0012BEDD1200015
:103D7000FEF749FB0834F2E71B4CA1681B4DC0223B
:103D8000280002F0F1FFA560EFF30583002B00D0BF
:103D900000BEFDF793FFFEF7EFFAFEF7B7FE144CF7
:103DA00001E008CC9847134B9C42FAD370BDC04643
:103DB00000E00040BFCDFBFE00F00040FE7F3C0075
:103DC00000C00040001C0020101C0020FFFFFF016D
:103DD00000F00140E01B00204C120110C012011045
:103DE0006C120110001C002000ED00E0000000201B
:103DF000101C0020181C00200FB400B583B0084828
:103E000003F044F9049B002B07D005A90191180089
:103E100003F04CF9034803F039F90120FFF730FFB4
:103E2000B0120110002801109A4200D28854704745
:103E3000704710B5002802D00B684968984710BD3C
:103E40000100002007E083001B185B00501C086085
:103E50001078C01830380A681378303BDBB2092B71
:103E6000F1D97047F0B5DE4657464E464546E0B5B7
:103E700083B093461F000C9B9A460D9C0E9B99465F
:103E80000F9B9B0703D0B8460F00060022E001926B
:103E9000A34688464E46B9460700B44207D2551C91
:103EA0004B4641462020B84701342A00F5E73D0043
:103EB0004F465C46019B9B46B1464646B846370096
:103EC0002E0007E0013C551C5346185D434639005F
:103ED000B0472A00002CF5D135003E0047460F9B25
:103EE0009B0707D4100003B0F0BCBB46B246A946FE
:103EF000A046F0BDB0464E46B9462F005D46531B66
:103F0000B342EFD2541C4B4641462020B847220012
:103F1000F5E7F0B5CE46474680B585B0944698465D
:103F20000C9D0D9C0EAB1B789946109A119B129E0E
:103F3000B7071CD4002B0CD0F7070AD54F46002F2B
:103F400002D10C37374204D0013B02E030272F5515
:103F50000134944201D21F2CF8D9F70707D59C42AF
:103F600005D21F2C03D830272F550134F5E7F7066B
:103F700015D5770505D4002C03D0944224D09C425B
:103F800022D00F9A102A2BD00F9A102A30D00F9AD5
:103F9000022A35D01F2C02D830222A5501341F2C7A
:103FA00005D84A46002A31D02D222A5501340396DD
:103FB00002930194009543466246FFF753FF05B014
:103FC000C0BCB946B046F0BD621E012C06D00F9FA2
:103FD000102F01D01400D4E7023CD2E71400D0E740
:103FE000B206D1D41F2CCFD878222A550134D1E77C
:103FF000B206CCD51F2CCAD858222A550134C9E79D
:104000001F2CC7D860322A550134C3E7720703D585
:104010002B222A550134CAE73207C8D520222A5557
:104020000134C4E7F0B5DE4657464E464546E0B596
:1040300093B081468A46089209931CAB10CB1B783B
:104040009B461E9D219B9846002C03D1102342467F
:104050009A4390468023DB0046461E4042461A4261
:1040600012D0002C22D000260EE03033D9B2771CBB
:104070000AAB99552900200000F0E4FFAC4216D3AA
:104080001F2F14D83E0004002900200000F0DAFFA2
:10409000CBB2092BE9D94246920605D54121C91870
:1040A000C9B20A39C9B2E2E76121F8E727004346FD
:1040B0000693209B05931F9B049303955B460293F5
:1040C00001970AAB0093099B089A51464846FFF7AF
:1040D00020FF13B0F0BCBB46B246A946A046F0BDD7
:1040E000F0B5DE4657464E464546E0B595B00890D9
:1040F00009910A920B931E9E1F9C20AB1B789B4636
:10410000229B9946239D269B9A463300234303D145
:10411000103352469A4392468023DB0057461F4095
:1041200052461A4219D0330023432DD0002714E001
:104130003033DAB27B1C98460CABDA554A462B007A
:104140003000210000F0BCFFA5421FD819D0434623
:104150001F2B1BD8474606000C004A462B00300098
:10416000210000F0ADFFD3B2092BE1D952469206EF
:1041700005D54122D218D2B20A3AD2B2DAE7612288
:10418000F8E7B145E3D901E000239846534606938A
:10419000259B0593249B04934B4603935B46029314
:1041A000434601930CAB00930B9B0A9A099908981C
:1041B000FFF7AFFE15B0F0BCBB46B246A946A0461D
:1041C000F0BD0000F0B5DE4657464E464546E0B528
:1041D00091B083468A460C9298461A9C08941B9D7F
:1041E000099522002B002000290001F0FCF900288D
:1041F00000D0E5E001225242D74B2000290001F017
:10420000EDF9002800D0DBE001225242D34B200020
:10421000290001F0CDF9002800D0D1E000220023D0
:10422000089E3000099D290001F0C2F9002800D045
:10423000DDE008980999069007918023DB001E9A1B
:104240001A400D921E9A1A4201D106231C93069819
:10425000079904000D000A000600024300D1D1E0D6
:10426000080D4005400DBE4CA44660440A03120BE5
:10427000BC4B13431F0001F0C9F9BB4ABB4B01F013
:104280004CF9BB4ABB4B01F021F904000D000022A0
:10429000B94B3000390001F010F9B84AB84B01F0C1
:1042A0003CF902000B002000290001F00FF901F099
:1042B000C5F9814601F0AAF904000D00B14AB24BDC
:1042C00001F02BF90022B14B01F000F901F0B6F931
:1042D0000600AF4AAF4B2000290001F01EF9040090
:1042E0000D00300001F092F9AB4AAC4B01F015F92A
:1042F00002000B002000290001F0DFF804000D008F
:1043000002000B0001F009F90A900B91A44BF3187D
:1043100000261F0522002B002000290001F0D6F8FE
:104320000E900F9122002B0000208021C90501F082
:10433000C4F804000D0000229A4B0A980B9901F072
:10434000CEF80022984B01F0C1F802000B000A9849
:104350000B9901F0C4F80022944B01F0B7F8020069
:104360000B000A980B9901F0BAF802000B0020002C
:10437000290001F0ABF802000B000E980F9901F034
:10438000AEF80022774B01F0A1F832003B0001F0BB
:10439000C4F806000F0004000D00069A079B01F008
:1043A0001DF9002830D001235B429C46E1440022E5
:1043B0007D4B3000390001F092F804000D0023E03D
:1043C0001E9B04931D9B03931C9B0293089A099BBD
:1043D0000092019343460C9A5146584600F0FCF86F
:1043E00011B0F0BCBB46B246A946A046F0BD0023C2
:1043F000002406930794069680231B069C4665447A
:1044000007951AE7002399464B466333C62B1ED8FF
:1044100004261E9B1B0526D52B0023430FD0644A80
:10442000644B0698079901F0D1F8002879D0002252
:10443000614B0698079901F0BBF8002871D01C9BCE
:104440004B4506DD4A46981A431E1C9303E0052699
:10445000DFE700231C938023DB001E9A1A431E9281
:104460000026002399461D9B9E4264D29F1B022377
:104470001E9A1A400A921E9A134202D0002E00D0B1
:1044800000274B46002B07D022002B0006980799E7
:1044900001F025F806900791002200230898099959
:1044A00001F086F8002848D1444B1E9A134004932B
:1044B00003971C9B0293069B079C00930194434621
:1044C0000C9A5146584600F087F8002E00D187E735
:1044D0001E9B9B063DD54525441C43460200514684
:1044E0002800D8474B46DA179B18534005220592FF
:1044F000013E0496002203920A3202924A46D00FED
:10450000019000934346220051465846FFF78AFD2A
:104510000A9B002B00D163E702005F460C9E1D9DA5
:1045200054E01C9B002B9ED00D9B002B9BD01C9B12
:10453000013B1C9397E7002799E7069C079D220003
:10454000290080200006844661440B0006920793F0
:10455000AAE76525C0E7C046FFFFEF7FFFFFEFFF3B
:1045600001FCFFFF0000F03FFB799F501344D33F55
:10457000B3C8608B288AC63F0000F83F61436F6371
:10458000A787D23F71A379094F930A400000E03F0B
:104590001655B5BBB16B0240EF39FAFE422EE63F2D
:1045A000FF03000000002C400000244000001840E1
:1045B0002D431CEBE2361A3F80842E41FFF7FFFFAC
:1045C000541C434651462020B8472200931BAB425F
:1045D000F6D3100004E7C046F0B5DE4657464E4617
:1045E0004546E0B595B00690079193469946209FC1
:1045F0001E9A1F9B1000190000F0F5FF002831D112
:1046000001225242BF4B1E981F9900F0D1FF002893
:1046100037D101225242BC4B1E981F9900F0DEFF99
:1046200000283DD10022B94B1E981F9900F0D6FFFB
:10463000002850D10022B64B1E981F9900F0B8FFF9
:10464000002848D1002200231E981F9900F0B0FFD7
:10465000002850D100239846229B5B0500D4B6E089
:10466000002458E0229B0393219B02930323019390
:10467000A84B00934B465A4607990698FFF7F2FB62
:104680000EE1229B0393219B029304230193A24BEF
:1046900000934B465A4607990698FFF7E3FBFFE065
:1046A0000423229A1A4022990B4210D09B4B002AD5
:1046B0000FD0042222990391219902910192009333
:1046C0004B465A4607990698FFF7CCFBE8E0944B17
:1046D000EDE70322EEE7229B0493219B03930297CD
:1046E0001E9B1F9C009301944B465A4607990698BF
:1046F000FFF768FDD4E01E9A1F9B0020002100F008
:10470000DCFE1E901F9101239846A5E70CAB3022DA
:104710001A55013F01341F2C01D8092FF6D81E98D5
:104720001F9900F08BFF050000F070FF02000B00E6
:104730001E981F9900F0C1FEFA007A4B9B181A6868
:104740005B680A920B9300F0E8FE0890099100F074
:1047500099FF060000F056FF02000B000898099927
:1047600000F0ABFE0890099100226F4B00F036FF7D
:1047700000282ED00136300000F044FF02000B006C
:104780000A980B9900F01AFF002801D00135002685
:10479000002F2CD1280000F039FF02000B001E98DA
:1047A0001F9900F08AFE06000F0000225E4B00F009
:1047B000FFFE002846D100225B4B3000390000F09C
:1047C0000DFF00283ED1EB073CD501353AE0062726
:1047D00046E70022544B0898099900F0E9FE0028AA
:1047E000D6D1002E01D0F307D2D50136D0E7AA46A4
:1047F0001F2C11D8013F0A21300000F023FC651C5A
:1048000030310CAB19550A21300000F01BFC092E89
:104810000ED906002C00EBE755461F2C0CD87B1E4A
:10482000002F09D00CAA302111551F000134F4E7E4
:104830002B0055461C00F0E71F2C03D80CAB2E2292
:104840001A5501341F2C10D80A21280000F0D2FB81
:10485000661C30310CAB19550A21280000F0CAFB48
:10486000051E01D03400EDE734000323229A1340E3
:10487000012B1CD01F2C06D84346002B32D00CAB8A
:104880002D221A550134229B0393219B02930194FC
:104890000CAB00934B465A4607990698FFF7E2FA8D
:1048A00015B0F0BCBB46B246A946A046F0BD219B60
:1048B000002B13D04346002B02D10C3313420FD0F0
:1048C000219B013B2193190003E00CAB30221A55C8
:1048D00001348C42CED21F2CF7D9CBE72199F8E7CF
:1048E0002199F6E7229B5B0704D50CAB2B221A55C6
:1048F0000134C8E7229B1B07C5D50CAB20221A55F3
:104900000134C0E7FFFFEFFFFFFFEF7F65CDCD4133
:1049100065CDCDC1DC120110E0120110D4120110DE
:10492000D0120110C81401100000E03FF0B5DE46BF
:1049300057464E464546E0B593B082468B46904674
:104940001193002900D1EBE200275546119B1878FE
:10495000002800D1E7E2252809D07C1C43463A0014
:104960005946A847119B013311932700EEE7013305
:1049700011930024119A11780B00203BD8B2102813
:1049800003D88300D048C3589F460B00303BDBB2AE
:10499000092B2CD92A292FD000230A93119B1A788E
:1049A0002E2A39D000239A46119A1378683BD9B23F
:1049B000122976D88B00C549CB589F4601231C434A
:1049C00001321192D6E702231C4301321192D1E742
:1049D00004231C4301321192CCE708231C4301320B
:1049E0001192C7E710231C4301321192C2E711A8AC
:1049F000FFF726FA0A90D1E71C9B1A1D1C92186833
:104A0000002804DB0A90119B01331193C6E70223AF
:104A10001C4343420A93F6E78022D20014435A1CF7
:104A200011925A781300303BDBB2092B04D92A2AA1
:104A300007D000239A46B7E711A8FFF701FA82468C
:104A4000B2E71C9B1A1D1C921868002804DB8246E2
:104A5000119B01331193A7E70020F8E780235B0047
:104A60002343511C119152786C2A01D01C0018E08C
:104A7000C0239B001C430131119112E0802323438A
:104A8000511C11915278682A01D01C0009E0C02302
:104A90001C430131119104E080235B001C4301326F
:104AA0001192119B18780300253BDAB2532A00D9E2
:104AB0002CE29300864AD3589F4680239B001C43D8
:104AC00001321192EDE780235B001C430132119209
:104AD000E7E7782809D0582838D06F2838D06228DE
:104AE00038D010239C430A2600E01026582833D0E3
:104AF000692803D0642801D00C229443630501D5B2
:104B00000122944369282AD0642828D0A30500D51F
:104B10009FE0E30500D5B8E0630600D4CAE01C9A24
:104B2000111D1C911168FF220A4005940A9B0493F1
:104B300053460393029600230193009243463A00A2
:104B400059462800FFF76EFA070027E01026CDE748
:104B50000826CBE70226C9E720221443C8E7A305AD
:104B600020D4E30550D4630666D51C9A111D1C9110
:104B70001168FF220A40D317D118594005940A9BA7
:104B80000493534603930296D20F01920091434639
:104B90003A0059462800FFF745FA0700119B0133F8
:104BA0001193D3E61C9BDA1D07218A4311000831BB
:104BB0001C91116853689C46DB170C930D930C9A5B
:104BC0000D9B100048400E90624653400F930E9884
:104BD0000F990C9A0D9B801A99410E900F91089491
:104BE0000A9B079353460693049600230593634656
:104BF000DA0F02920090019143463A00594628008C
:104C0000FFF76EFA0700C9E71C9A111D1C91126884
:104C1000D317D118594005940A9B04935346039324
:104C20000296D20F0192009143463A00594628005D
:104C3000FFF7F8F90700B1E7230605D51C9A111D07
:104C40001C910023D25E96E71C9A111D1C911268DC
:104C500091E71C9BDA1D07218A43110008311C9142
:104C600008940A9B079353460693049600230593E2
:104C70000293136854680093019443463A005946DE
:104C80002800FFF72DFA070088E71C9A111D1C91D8
:104C900005940A9B049353460393029600230193C1
:104CA0001368009343463A0059462800FFF7BAF9C3
:104CB000070073E723060DD51C9A111D1C9112687D
:104CC0001204120C31E7C046E81201102C13011037
:104CD000781301101C9A111D1C91126825E74628B3
:104CE0001AD01C9B0733072293431A0008321C92E8
:104CF00004940A9A0392524602925C681B680093DD
:104D0000019443463A0059462800FFF765FC070026
:104D1000119B0133119319E620231C43E1E7672817
:104D200001D0472802D180231B011C43452801D014
:104D3000472801D120231C431C9B073307229343A0
:104D40001A0008321C9204940A9A03925246029264
:104D50005C681B680093019443463A00594628005A
:104D6000FFF730FA0700119B01331193EEE50223A0
:104D70001A002240924623421FD001241C9B1A1D78
:104D80001C927A1C9146187843463A005946A84727
:104D90005346002B16D1119B013311934F46D5E595
:104DA000561C434659462020B847230032005C1C5D
:104DB0009D42F5D83D001700E0E701233A002F009F
:104DC0000A9DF4E74A46A9460A9D06E0571C434659
:104DD00059462020C84734003A00661CA542F5D841
:104DE0004D469146D7E71C9B1A1D1C921B6899469D
:104DF0005346002B00D1013B4E4601E00136130023
:104E00003278002A02D05A1E002BF7D14B46F21AF4
:104E100010928023DB0026001E401C4203D0524526
:104E200001D95346109302231A0022400B922342C9
:104E300005D03A0037004C46A946554620E03A00D6
:104E4000109B5F46B3462E0006E0551C43463900D2
:104E50002020B04723002A005C1C0A999942F4D80C
:104E600035005E46BB46109437004C46A946554671
:104E700006E01D000134561C43465946C84732001F
:104E80002078002804D0002FF4D06B1E002DF0D124
:104E900017004D460B9B002B03D1119B013311933F
:104EA00054E50A9F109B06E0561C434659462020B5
:104EB000A847230032005C1C9F42F5D81700ECE79E
:104EC00021231C431C9B1A1D1C921B6800930594F4
:104ED0000823049353460393102302930023019362
:104EE00043463A0059462800FFF79CF80700119BFB
:104EF000013311932AE57C1C43463A00594625208C
:104F0000A847119B0133119327001FE57C1C4346E2
:104F10003A005946A847119B01331193270015E524
:104F20000A4B9A4610E5AA46474502D343465A1E05
:104F300000E03A00434659460020D047380013B0FD
:104F4000F0BCBB46B246A946A046F0BD313E0010BB
:104F500000B583B0009313000A0001000248FFF778
:104F6000E5FC03B000BDC046293E001000B585B089
:104F7000029003910121009313004A4202A90248C2
:104F8000FFF7D4FC05B000BD333E001001480421FA
:104F9000014B184730130020BD4F001010B5010021
:104FA00018231B8814221088984710BD10B50100E3
:104FB00018231B8816221088984710BDF0B5C646E6
:104FC00000B507000E0000250123984600E00135DA
:104FD000B5420AD2AC003C192068FFF7DFFF206021
:104FE0000028F4D100239846F1E7404680BCB8463B
:104FF000F0BD0000124A936F9B0815D29066D166EF
:10500000002905D0FFE7FFE7FFE7516F106F7047FA
:1050100004B580210906C2175140002800D0C843BA
:105020000BF0F6F8002104BDF0B5146E556E576F05
:10503000166FFFF7E3FF1466556657671667F0BDF6
:10504000000000D0114A936F9B0813D2106651667E
:10505000002905D0FFE7FFE7FFE7516F106F7047AA
:1050600004B5002801D00020C0430BF0D1F8002186
:1050700004BDC046F0B5146E556E576F166FFFF73E
:10508000E5FF1466556657671667F0BD000000D04F
:1050900094464A4A926F9208624601D228E0C0467E
:1050A000F0B5464E346E756E776F366F00F020F8AF
:1050B0009446424A14665566576716676246F0BDC5
:1050C00094463E4A926F9208624601D254E0C0462E
:1050D000F0B53A4E346E756E776F366F00F04CF85F
:1050E0009446364A14665566576716676246F0BDA1
:1050F000002B24DB11D000293EDA00B5C943404221
:1051000000D1013100F038F8C943404200D10131EB
:10511000DB43524200D1013300BD002AEBD100280D
:1051200001D1002905D00020C90FC90701D1C04312
:10513000410800B50BF064F80022002300BD00B563
:1051400000290ADBDB43524200D1013300F014F89E
:10515000C943404200D1013100BDC943404200D1A2
:105160000131DB43524200D1013300F005F8DB434B
:10517000524200D1013300BD002923D1002B18D1A8
:10518000002A0CD0BC460D4F38667A6600210023F9
:10519000FFE7FFE7FFE77A6F386F67467047002841
:1051A00001D00748010000B50BF02AF800220023C7
:1051B00000BD02000B00002000217047000000D05D
:1051C000FFFFFFFF002B00D0BFE0130C28D1002A07
:1051D000E7D080B4114F39667A66FFE7FFE730B455
:1051E000040C7B6F396F1B0423433B667A66FFE731
:1051F000FFE7FFE7C04684B27B6F3D6F1B0423438C
:105200003B667A66FFE7FFE7C04600232C042D0CBF
:105210007A6F386F00196941B0BC7047000000D048
:10522000F0B594460025140E01D112020835140F72
:1052300001D112010435940F01D192000235D40F2F
:1052400001D152000135D40B0134254F7C66254C29
:105250003C660E0C93B2FFE7FFE7FFE73C6F664347
:10526000360C7703BE467343DF0B5B04C01AB941AB
:10527000130C7343DB18C91ACE086643360CB644C8
:1052800093B273431F0F1B01C01AB941130C734330
:105290001F0B1B05C01AB941860D8F023E436643A2
:1052A000360C092D24DB520A7243801A7703460A12
:1052B0006643360C16235B1BDE40DF40BF19644695
:1052C0006643821B7046043506330100D940A8406E
:1052D000C01900D30131A24206D20023F0BD000064
:1052E000000000D0FFFFFFFF121B0130F3D3F1E7F6
:1052F00009277F1BFE406446A2B27243801A00D287
:105300000139220C7243130C1204821A99410B00CA
:105310007046043513370100F940A840801900D3C6
:105320000131002B02D1A2420AD2F0BD013000D3DC
:105330000131121BFAD2013BF8D1A24200D2F0BDDA
:10534000013000D30131121BF7E7F0B51C0C00D07F
:1053500080E00CB400251C0A04D11B02160E334356
:10536000120208351C0B04D11B01160F3343120126
:1053700004359C0B04D19B00960F334392000235F9
:10538000DC0B02D192185B4101351C009718644177
:105390000134464F7C66464C3C660E0CFFE7FFE747
:1053A000FFE7C0463C6F6643360C7703BE4697B2B4
:1053B0007743C01B00D20139C01B00D201399FB214
:1053C0007743C91BC91B170C77437E04FF0B801B57
:1053D000B941CE086643360C0C2D33DBB644120BB4
:1053E0001F053A431B0B97B27743C01B00D201390C
:1053F0009FB27743C91B170C77433E043F0C801BB9
:10540000B941860D8F023E43664329277F1BFE402C
:105410000C3D7746AF40BF1930BCA2B2ABB272436D
:105420007343801A9941220C7243130C1204801AA0
:10543000994102000B000137001BA941F9D2781EE7
:105440000021F0BD0C277F1BFE4077467F0BAF404D
:10545000FF19E0E700245D1C07D0144F7D66396614
:10546000FFE7FFE7FFE7FFE73C6F95B29EB26543BA
:105470006643401BB141150C1E0C65436643360460
:105480002F0C3E432D04401BB141994204D202002F
:105490000B0020000021F0BD01D19042F7D3801A0B
:1054A000994101349942F2D3F6E70000000000D0A0
:1054B000FFFFFFFF48404140484018B41B4B5B686A
:1054C000FC46019308BD04DF7761001018B4174B48
:1054D0001B68FC46019308BD00DF81610010944603
:1054E000134A926F920809D2624618B40F4BDB68D8
:1054F000FC46019308BD0CDF396400100C4AF0B57E
:10550000146E556E576F166F6246FFF7EEFF084A2E
:105510001466556657671667F0BD18B4034B9B6851
:10552000FC46019308BD08DFDD620010D42C00208A
:10553000000000D0FFB550404240504059404B4021
:10554000594000E0FFB5154F4C00640D03D0BC423C
:1055500004D10C0314D80020090D09055C00640D6A
:1055600003D0BC4204D11C030AD800221B0D1B052A
:1055700001264B4009D44B4003D58B4200D18242D7
:10558000FFBD9942FCD19042FFBD0B43DB180343A2
:105590001343F5D0C9434918FFBD0000FF070000C1
:1055A00000B5FFF7CFFF01D0002000BD012000BDF6
:1055B00000B5FFF7C7FF804100BDC04600B5FFF74B
:1055C000C1FF01D9002000BD012000BD00B5FFF7DB
:1055D000B1FF01D9002000BD012000BD00B5FFF7DB
:1055E000A9FF804100BD012040054A00121804D8DF
:1055F0005A00121801D8002070470120704700207F
:10560000704700000021002805D17047C1174840AD
:10561000401AFAD0C90713B5064B1B6898470CBC53
:10562000441CA2401005120B0349091B090519432C
:10563000114310BDD42D00201F04000010B54C00F4
:10564000620D8023D218DB00D21A5B057E2A10DDA2
:105650009E3A13DACC170903490819435242D14044
:10566000640001341532202A05DAD0400843604333
:1056700010BD002010BD0846604310BDC80FC01803
:10568000013810BD18B4044B5B6AFC46019308BD99
:1056900024DFE96500100000D42C002018B4044B6E
:1056A000DB6CFC46019308BD4CDFB96700100000BD
:1056B000D42C002018B4044B1B6DFC46019308BD8C
:1056C00050DF556800100000D42C002070B5132363
:1056D0001C78012C14D0012C14DC022C02DC1F4A93
:1056E0001F4B9A641F48FFF759FC1F4B186070BD91
:1056F00099001A481A4A885001331F2BF8D9EAE753
:105700000023FAE71948FFF751FC05001848FFF796
:105710004DFC023803789B007F2B19DD8022290085
:105720000F4801F021FB022CD7D1124B1A88B52368
:105730001B029A4209D1104B1A88104B9A4204D18D
:105740000F4B1A880F4B9A42C7D00020FEF754FB2C
:105750000D4B0E4A32210E48FEF7B4FA3D6100109F
:10576000D42C00204C330000D42D002053440000E2
:105770005346000054380000D83800004946000065
:105780009C3800005946000018150110B41501108E
:105790006C15011070B504000D001600012A0ED022
:1057A000D20F92195210FFF7F5FF02000B00FFF71E
:1057B000B4FEF30703D522002B00FFF7AEFE70BD49
:1057C000F0B5D6464F464646C0B588B014001D0019
:1057D0000E0D7605760D974B9846B044964B9B1B65
:1057E000009001910F0D7F0514D0944FBE4211D04F
:1057F000991900290ADD924881423ADD019BDB0FAD
:10580000DB0700208F4A1A43110003E00020019BB0
:10581000DB0FD907FFF74EFF8B4A8C4BFFF75FFE7C
:1058200000228B4B00900191FFF7D8FE00280AD090
:105830000022884B00980199FFF73FFE00900191EC
:10584000854B9846B0444346002B1BD00022834B27
:1058500020002900FFF7BAFE00281FD04346002B86
:1058600019DB0020774908B0E0BCBA46B146A8462B
:10587000F0BD00201905009A019B12184B41100041
:105880001900C7E722002B0000980199FFF745FE99
:1058900000F030FAE7E700200021E4E70022704B37
:1058A00020002900FFF78AFE002808D04346002B7D
:1058B00002DB00200021D6E700206249D3E7200068
:1058C000290000F0C9F906000F0002000B002000BB
:1058D0002900FFF7F2FD029003911A2200F094F9DB
:1058E00000F0BAF904000D0002000B00090D490593
:1058F000480D002913D05149884210D01A38002889
:105900000ADD4F49884200DC84E0EB0FDB0700240E
:105910004C4A1A43150002E00024EB0FDD07220079
:105920002B0002980399FFF7C8FD069007913000FD
:105930003900FFF783FE8146030041464B439A46F8
:105940004046FFF763FE22002B0004900591FFF70D
:10595000E4FD06000F0000F07FF904000D00FFF7E2
:105960006DFE8046D04422002B0030003900FFF746
:10597000A4FD04000D00069A079B04980599FFF703
:10598000CCFD02000B0020002900FFF79FFD0490D2
:1059900005914846FFF73AFE009A019BFFF7BDFDCF
:1059A00004000D0000F058F906000F00FFF746FE56
:1059B000804432003B0020002900FFF77EFD049A5E
:1059C000059BFFF783FD04000D00029A039B0098DE
:1059D0000199FFF7A2FD22002B00FFF777FD00F0F1
:1059E00089F904000D000B0D5B055A0D002B00D149
:1059F00039E7124B9A4200D135E74244002A0EDDC6
:105A00000F4B9A420FDDCB0FDB0700200D4A1A43E4
:105A1000110028E70024134DA4185D417FE7002002
:105A2000CB0FD9071FE7002043461905001969412C
:105A300019E7C04601FCFFFFFF030000FF0700005D
:105A4000FE0700000000F07FEF39FAFE422EE63F2D
:105A50000000E03F0000F03F02FCFFFF0000B0400C
:105A60000000B0C0000060FEF0B5D64600B582B0C0
:105A700001900E0000921D0003000C00CA0F924618
:105A8000002955DA2A0D5205520D584952183ED4B4
:105A900034218A1A3DD45439501825D41F318140FD
:105AA000012040429040009E864330002E008E43ED
:105AB000310001432FD1342A2FD0203951181CD462
:105AC0002A00CA4001210A40002A28D01800802656
:105AD0003606A119009A2B00FFF7C6FF8B19190093
